:020000040000FA
:020000000528D1
:0800080009005B202100053016
:100010009D009D1429200E2036200A2820000C1057
:100020000C1E8C1D08000C140C1D08000C19162841
:1000300019288C161E2022008C010800B930F5000A
:100040002030F6000230F700F50B2428F60B2428A8
:10005000080020008C1D0C1A31283D001D30950031
:1000600008003D00950122008C0108000530522057
:100070001B081C0403199B0A1B08F0001C08F10054
:10008000F20103194828F035F10DF20D89034128DA
:100090002900720800309D00710800309C00700833
:1000A0009B00080021009D000730890B55289D14F6
:1000B0009D18582808003200623099009B0140309A
:1000C0009D0003309F009B1D632820008C012100B0
:1000D0001E308C00230002308C002700FF308C0083
:1000E0003D001D309500210001309D00A0309E0094
:1000F0009F018B01210090019101290001309F0097
:0601000080309E000800A3
:020000040001F9
:02000E008C1F45
:060010003237FF1FFF3F25
:00000001FF
